{
  "transactions": [
    {
      "hash": "0x4102ae798d99499b0c260c6187bc7597fd2a3effca5ce00cbc349cae39837625",
      "transactionType": "CREATE",
      "contractName": "GuardedCommit",
      "contractAddress": "0x2eE0AeEC0c21a8D323b69CbaAAf3CB126A12EB86",
      "function": null,
      "arguments": null,
      "transaction": {
        "type": "0x02",
        "from": "0x5a57a85b5162136026874aef76249af1f5149e5e",
        "gas": "0x7a7b3",
        "value": "0x0",
        "data": "0x608060405234801561001057600080fd5b503261001b81610021565b50610071565b600080546001600160a01b038381166001600160a01b0319831681178455604051919092169283917f8be0079c531659141344cd1fd0a4f28419497f9722a3daafe3b4186f6b6457e09190a35050565b610597806100806000396000f3fe608060405234801561001057600080fd5b50600436106100725760003560e01c80638da5cb5b116100505780638da5cb5b146100a7578063cd5d2118146100d4578063f2fde38b1461010757600080fd5b80630b44a21814610077578063651da53f1461008c578063715018a61461009f575b600080fd5b61008a610085366004610377565b61011a565b005b61008a61009a3660046103e2565b610178565b61008a6101c0565b60005460405173ffffffffffffffffffffffffffffffffffffffff90911681526020015b60405180910390f35b6100f76100e23660046104c4565b60016020526000908152604090205460ff1681565b60405190151581526020016100cb565b61008a6101153660046104c4565b6101d4565b61012261023d565b73ffffffffffffffffffffffffffffffffffffffff91909116600090815260016020526040902080547fffffffffffffffffffffffffffffffffffffffffffffffffffffffffffffff0016911515919091179055565b610180610290565b7f69dcab22294c6b231635e03a0e546dd39d5b10b03693e8bd516ad762807ad0d28383836040516101b3939291906104e6565b60405180910390a1505050565b6101c861023d565b6101d260006102d9565b565b6101dc61023d565b73ffffffffffffffffffffffffffffffffffffffff8116610231576040517f1e4fbdf7000000000000000000000000000000000000000000000000000000008152600060048201526024015b60405180910390fd5b61023a816102d9565b50565b60005473ffffffffffffffffffffffffffffffffffffffff1633146101d2576040517f118cdaa7000000000000000000000000000000000000000000000000000000008152336004820152602401610228565b3360009081526001602052604090205460ff166101d2576040517fc14d5d6000000000000000000000000000000000000000000000000000000000815260040160405180910390fd5b6000805473ffffffffffffffffffffffffffffffffffffffff8381167fffffffffffffffffffffffff0000000000000000000000000000000000000000831681178455604051919092169283917f8be0079c531659141344cd1fd0a4f28419497f9722a3daafe3b4186f6b6457e09190a35050565b803573ffffffffffffffffffffffffffffffffffffffff8116811461037257600080fd5b919050565b6000806040838503121561038a57600080fd5b6103938361034e565b9150602083013580151581146103a857600080fd5b809150509250929050565b7f4e487b7100000000000000000000000000000000000000000000000000000000600052604160045260246000fd5b6000806000606084860312156103f757600080fd5b8335925060208401359150604084013567ffffffffffffffff8082111561041d57600080fd5b818601915086601f83011261043157600080fd5b813581811115610443576104436103b3565b604051601f82017fffffffffffffffffffffffffffffffffffffffffffffffffffffffffffffffe0908116603f01168101908382118183101715610489576104896103b3565b816040528281528960208487010111156104a257600080fd5b8260208601602083013760006020848301015280955050505050509250925092565b6000602082840312156104d657600080fd5b6104df8261034e565b9392505050565b83815260006020848184015260606040840152835180606085015260005b8181101561052057858101830151858201608001528201610504565b5060006080828601015260807fffffffffffffffffffffffffffffffffffffffffffffffffffffffffffffffe0601f8301168501019250505094935050505056fea264697066735822122082e357c05b559ab5a0cbf606414d6edd8bed3402865ef22c4cee58e3b755c30164736f6c63430008150033",
        "nonce": "0x3b",
        "accessList": []
      },
      "additionalContracts": [],
      "isFixedGasLimit": false
    },
    {
      "hash": "0xd84a158f3615b42371fe851d29cc0acaae0946f7de3e96b5e93973717ff8ef97",
      "transactionType": "CALL",
      "contractName": "src/GuardedCommit.sol:GuardedCommit",
      "contractAddress": "0x2eE0AeEC0c21a8D323b69CbaAAf3CB126A12EB86",
      "function": "setAuth(address,bool)",
      "arguments": [
        "0x0BD5344f40744F54331d209629eB6800832F7471",
        "true"
      ],
      "transaction": {
        "type": "0x02",
        "from": "0x5a57a85b5162136026874aef76249af1f5149e5e",
        "to": "0x2ee0aeec0c21a8d323b69cbaaaf3cb126a12eb86",
        "gas": "0xf9b3",
        "value": "0x0",
        "data": "0x0b44a2180000000000000000000000000bd5344f40744f54331d209629eb6800832f74710000000000000000000000000000000000000000000000000000000000000001",
        "nonce": "0x3c",
        "accessList": []
      },
      "additionalContracts": [],
      "isFixedGasLimit": false
    }
  ],
  "receipts": [
    {
      "transactionHash": "0x4102ae798d99499b0c260c6187bc7597fd2a3effca5ce00cbc349cae39837625",
      "transactionIndex": "0x8",
      "blockHash": "0xda6573fe446e753a9f2df44954adb27cd9e9dafc4d8c427f8a52797ecc0e5eb7",
      "blockNumber": "0x1285cb0",
      "from": "0x5a57A85b5162136026874aeF76249af1F5149e5E",
      "to": null,
      "cumulativeGasUsed": "0x1302f2",
      "gasUsed": "0x5e3d8",
      "contractAddress": "0x2eE0AeEC0c21a8D323b69CbaAAf3CB126A12EB86",
      "logs": [
        {
          "address": "0x2eE0AeEC0c21a8D323b69CbaAAf3CB126A12EB86",
          "topics": [
            "0x8be0079c531659141344cd1fd0a4f28419497f9722a3daafe3b4186f6b6457e0",
            "0x0000000000000000000000000000000000000000000000000000000000000000",
            "0x0000000000000000000000005a57a85b5162136026874aef76249af1f5149e5e"
          ],
          "data": "0x",
          "blockHash": "0xda6573fe446e753a9f2df44954adb27cd9e9dafc4d8c427f8a52797ecc0e5eb7",
          "blockNumber": "0x1285cb0",
          "transactionHash": "0x4102ae798d99499b0c260c6187bc7597fd2a3effca5ce00cbc349cae39837625",
          "transactionIndex": "0x8",
          "logIndex": "0x20",
          "removed": false
        }
      ],
      "status": "0x1",
      "logsBloom": "0x00000000000000000000000020000000000000000000000000800000000000000000000000000000000000000000000000000000000000000000000000000000000000000000000000000000000000000001000008000000000000002000000000000000020000000000000000000800000000000000000000000000000000400000000000000000000000000000000000000000000000000000000000000000000000000000000000000000000020000000000000000000000000000000000000000000000000000000000000000000000000000000000000000000000020000000000000000000000000000000001000000000000000200000000000000000",
      "type": "0x2",
      "effectiveGasPrice": "0xb2dcf453f"
    },
    {
      "transactionHash": "0xd84a158f3615b42371fe851d29cc0acaae0946f7de3e96b5e93973717ff8ef97",
      "transactionIndex": "0x37",
      "blockHash": "0xda6573fe446e753a9f2df44954adb27cd9e9dafc4d8c427f8a52797ecc0e5eb7",
      "blockNumber": "0x1285cb0",
      "from": "0x5a57A85b5162136026874aeF76249af1F5149e5E",
      "to": "0x2eE0AeEC0c21a8D323b69CbaAAf3CB126A12EB86",
      "cumulativeGasUsed": "0x7457b3",
      "gasUsed": "0xb4c8",
      "contractAddress": null,
      "logs": [],
      "status": "0x1",
      "logsBloom": "0x00000000000000000000000000000000000000000000000000000000000000000000000000000000000000000000000000000000000000000000000000000000000000000000000000000000000000000000000000000000000000000000000000000000000000000000000000000000000000000000000000000000000000000000000000000000000000000000000000000000000000000000000000000000000000000000000000000000000000000000000000000000000000000000000000000000000000000000000000000000000000000000000000000000000000000000000000000000000000000000000000000000000000000000000000000000",
      "type": "0x2",
      "effectiveGasPrice": "0xb2dcf453f"
    }
  ],
  "libraries": [],
  "pending": [],
  "returns": {},
  "timestamp": 1710287381,
  "chain": 1,
  "multi": false,
  "commit": "315fbb2"
}